:0400000035EF0EF0DA
:1000080000C017F001C016F002C015F0F2A414D019
:1000180082A609D0829644C000F0016A00C0D7FFCA
:1000280043C0D6FF08D082863CC000F0016A00C0F9
:10003800D7FF3BC0D6FFF2949EA014D083A009D06E
:10004800839038C000F0016A00C0CFFF37C0CEFFF0
:1000580008D083803AC000F0016A00C0CFFF39C0E1
:10006800CEFF9E90A1A214D083A209D0839254C03F
:1000780000F0016A00C0B3FF53C0B2FF08D083820A
:1000880030C000F0016A00C0B3FF2FC0B2FFA192D8
:0E00980017C000F016C001F015C002F01100F4
:0800A6000AAE029E000E1200DA
:1000AE000B820BAE61EF00F0036802680168006816
:0800BE000A360232FF0E1200A7
:0E00C600026A016A006A086A036A000E1200EC
:1000D4000B840BAE75EF00F0010E036E026A016A29
:0A00E400006A0A360232FF0E120015
:1000EE000CB0B9EF00F00CA25FEF01F00E6A000E3B
:1000FE000264D0EF00F0F00E0214D8A49BEF00F0D3
:10010E00023A01380F0B02260138F00B016E00384F
:10011E000F0B01260038F00B006E08380F0B00266F
:10012E000838F00B086E0E84D89002BEB4EF00F0C3
:10013E0008360036013602360E2A02BEB4EF00F043
:10014E0008360036013602360E2A02BEB4EF00F033
:10015E0008360036013602360E2A0E50036455EF6D
:10016E0001F0035E0BBC08AE5AEF01F0D880800E92
:10017E0008640030000E002201220222D8A05AEF9D
:10018E0001F0023201320032034A5FEF01F05AEF02
:10019E0001F001C002F000C001F008C000F0086AD2
:1001AE00000E0E86026407EF01F0F00E0214D8A4C2
:1001BE00EFEF00F0023A01380F0B02260138F00B78
:1001CE00016E00380F0B01260038F00B006E0E8406
:1001DE00D89002BEB4EF00F00036013602360E2A79
:1001EE0002BEB4EF00F00036013602360E2A02BE11
:1001FE00B4EF00F00036013602360E2AB4EF00F0EE
:10020E0001C002F000C001F0006A000E0E960E88CA
:10021E00026434EF01F0F00E0214D8A41FEF01F0C7
:10022E00023A01380F0B02260138F00B016E0E84D4
:10023E00D89002BEB4EF00F0013602360E2A02BE8E
:10024E00B4EF00F0013602360E2A02BEB4EF00F013
:10025E00013602360E2AB4EF00F001C002F0016A38
:10026E00000E0E86026464EF01F0F00E0214D8A4A4
:10027E0043EF01F0023A0E84D89002BEB4EF00F0C4
:10028E0002360E2A02BEB4EF00F002360E2A02BE6D
:10029E00B4EF00F002360E2AB4EF00F0010E0C6E31
:1002AE0012DF67EF01F0020E0C6EF6DE67EF01F063
:1002BE00040E0C6EF5DE67EF01F0080E0C6EFCDE20
:0202CE0012001C
:0802D0000B6A0B86FF0E120001
:1002D800025006180E6E086A096A0B6A0350076412
:1002E8005FEF02F006500A6E068E028E03500B6E08
:1002F8000750036E000E0B64AFEF01F00B50075E62
:10030800D8B450EF02F0070E07641EEF02F0075E44
:1003180000C008F001C000F002C001F0026A074EF8
:1003280050EF02F00764F3EF01F0075E00C008F039
:1003380001C000F0016A074E50EF02F00764D1EFE8
:1003480001F0075E00C008F0006A074E50EF02F0A7
:100358000764B8EF01F00AC002F005C001F004C05C
:1003680000F0086A79EF03F0030E0764C3EF01F0A9
:10037800075E08380F0B086E074E50EF02F0D89052
:100388000832074E50EF02F0D8900832074E50EF6F
:1003980002F0D890083250EF02F0030E0764E2EF43
:1003A80001F0075E08380F0B086E0038F00B0826BE
:1003B80000380F0B006E074E50EF02F0D890003255
:1003C8000832074E50EF02F0D89000320832074E3C
:1003D80050EF02F0D8900032083250EF02F0030ECE
:1003E80007640AEF02F0075E08380F0B086E003842
:1003F800F00B082600380F0B006E0138F00B0026B2
:1004080001380F0B016E074E50EF02F0D890013201
:1004180000320832074E50EF02F0D8900132003215
:100428000832074E50EF02F0D890013200320832FD
:1004380050EF02F0030E07643BEF02F0075E083846
:100448000F0B086E0038F00B082600380F0B006EF3
:100458000138F00B002601380F0B016E0238F00B43
:10046800012602380F0B026E074E50EF02F0D890AB
:100478000232013200320832074E50EF02F0D890B3
:100488000232013200320832074E50EF02F0D890A3
:100498000232013200320832096A000E0EAE44EF11
:1004A80003F0081E001E011E021E082A0022012257
:1004B800022244EF03F00750D8A465EF02F079EF69
:1004C80003F0096A02C00AF0028E068E0750035C28
:1004D800076ED8B437EF03F0070E076405EF03F093
:1004E800075E0450096E0550046E0650056E066AD4
:1004F800074E37EF03F0070E0764DAEF02F0075EE6
:100508000450096E0550046E056A074E37EF03F074
:10051800070E0764B8EF02F0075E0450096E046A1C
:10052800074E37EF03F0070E07649FEF02F00AC08B
:1005380002F079EF03F0030E0764AAEF02F0075EFA
:1005480009380F0B096E074E37EF03F0D8900932C0
:10055800074E37EF03F0D8900932074E37EF03F014
:10056800D890093237EF03F0030E0764C9EF02F0A1
:10057800075E09380F0B096E0438F00B092604389A
:100588000F0B046E074E37EF03F0D8900432093290
:10059800074E37EF03F0D89004320932074E37EF91
:1005A80003F0D8900432093237EF03F0030E0764E2
:1005B800F1EF02F0075E09380F0B096E0438F00BF3
:1005C800092604380F0B046E0538F00B042605388D
:1005D8000F0B056E074E37EF03F0D8900532043243
:1005E8000932074E37EF03F0D8900532043209324A
:1005F800074E37EF03F0D89005320432093237EF4F
:1006080003F0030E076422EF03F0075E09380F0BAF
:10061800096E0438F00B092604380F0B046E0538F0
:10062800F00B042605380F0B056E0638F00B05266F
:1006380006380F0B066E074E37EF03F0D8900632D8
:10064800053204320932074E37EF03F0D8900632EC
:10065800053204320932074E37EF03F0D8900632DC
:10066800053204320932086A000E0EAE44EF03F078
:10067800091E041E051E061E092A0422052206223A
:100688000950082604500022055001220650022273
:100698000EBE5BEF03F0D8A06AEF03F0023201321E
:1006A80000320832033E6AEF03F074EF03F0D8B06B
:1006B8006FEF03F0000E081E001E011E021E082A1E
:1006C8000022012202220A7E6FEF03F0010E0C6E57
:1006D8000ADD7BEF03F0020E0C6E05DD7BEF03F005
:1006E800040E0C6EE0DC7BEF03F0000E0C6E1200C3
:1006F8000B800BAE88EF03F0026A0AAEFF0E026EA3
:0C070800016E006E0A360232FF0E120075
:100714000450000A12E10550000A0FE10650000AD5
:100724000CE10750000A09E1FF0E006EFF0E016E96
:100734007F0E026EFF0E036EA4D0086A096A07508A
:10074400D8B435EF04F00350D8B439EF04F00250B4
:1007540006180A6E028E068E0E6A02C008F001C0E8
:100764000CF000C00DF004500D5E0550D8A0053CFF
:100774000C5E0650D8A0063C085E086A0C6A0D6A36
:10078400D8A0CCEF03F0D890023201320032083204
:10079400010E0E6E0750035ED8A0D9EF03F07E0E53
:1007A4000E240326D8B03DEF04F0DFEF03F07E0EF5
:1007B4000E240326D8A041EF04F0180E0B6E0D365C
:1007C4000C3608360036013602360E360450005E0A
:1007D4000550D8A0053C015E0650D8A0063C025E38
:1007E40006340E120EA0FAEF03F00D8005EF04F0AC
:1007F400045000260550D8B0053C01260650D8B058
:10080400062802260D900B2EE1EF03F02BEF04F0E7
:10081400D8900036013602360E360450005E05507C
:10082400D8A0053C015E0650D8A0063C025E063402
:100834000E10010B0D26D8B00C2AD8B4082AD8A45F
:100844002BEF04F008320C320D32032AD8B43DEFFA
:1008540004F00AAE089E0850026E0C50016E0D5052
:10086400006E43EF04F0010E31DD43EF04F0020E9D
:1008740028DC43EF04F0040E18DC43EF04F0080E08
:0408840027DC12005B
:06088800067E26DD1200D1
:10088E000C6A0E6A0250D8A460EF04F001C002F0A8
:10089E0000C001F0006A0E860250D8A460EF04F08A
:1008AE0001C002F0016A0E960E880250D8B472EFA3
:1008BE0004F00E50035ED8A4D8A078EF04F0D890C0
:1008CE0002BE7EEF04F0003601360236032E67EFCD
:1008DE0004F078EF04F0010E0C6E63EC00F082EF82
:1008EE0004F0020E0C6E6AEC00F082EF04F0040EBF
:0808FE000C6E53EC00F0120037
:10090600086A096A000E0762036408EF05F00250E0
:1009160006180A6E075003267E0ED8A099EF04F03B
:10092600035ED8B00DEF05F09DEF04F0035ED8A08E
:1009360012EF05F0028E068E02C00EF001C00BF01B
:1009460000C00DF000500402F4CF0CF00150050277
:10095600F4CF00F0F3CF08F00402F3500C26F45065
:100966000822000E00220D500502F3500C26F4500A
:100976000822000E002202500402F3500826F4500A
:10098600002202500502016A000E0122F3500026E1
:10099600F45001220D500602F3500826F4500022AE
:1009A600026A000E012202220B500602F3500026B4
:1009B600F4500122000E02220E500602F3500126C8
:1009C600F450022202BEF0EF04F00836003601367B
:1009D60002360306D8B412EF05F003EF05F0D8800F
:1009E600800E08640030000E002201220222D8A0E8
:1009F60003EF05F0023201320032034A0DEF05F033
:100A06000AAE029E000E15EF05F0010E63EC00F033
:100A160015EF05F0020E57EC00F015EF05F0040E89
:060A26006AEC00F0120072
:100A2C000B6A0C6A0A6A0350D8B460EF05F0028EA8
:100A3C008E0E035E03BE28EF05F0D8B428EF05F048
:100A4C0064EF05F0036C080E035CD8A03FEF05F0D3
:100A5C00036E013602C001F0026A080E035CD8A0D6
:100A6C003FEF05F00136016A0350D8A4D89049EF46
:100A7C0005F00350D8B449EF05F0D890023201329A
:100A8C00032E43EF05F00BBC01A056EF05F0D8A0E8
:100A9C0056EF05F0012AD8B4022A02BE73EF05F016
:100AAC000AAE78EF05F0021E011E012AD8B4022A04
:100ABC0078EF05F0026A016A78EF05F00B800BAE57
:100ACC007CEF05F0026A0AAE7CEF05F0FF0E026EB9
:100ADC00016E0A3602327CEF05F0010E0C6E06DE5A
:100AEC007EEF05F0000E0C6E7EEF05F0FF0E0C6E27
:0A0AFC000150006E0250016E12005E
:100B060075C000F076C001F077C002F078C003F03F
:100B16007F0E046E6A0E056E3C0E066E7B0E076E29
:100B2600EFDE000E046E000E056E340E066E860EA7
:100B3600076EEDDD580E046E390E056E340E066E28
:100B4600790E076E6CEC01F000C029F001C02AF0A6
:100B560002C02BF003C02CF0000E046E500E056E82
:100B6600430E066E8E0E076ECBDE00C004F001C08B
:100B760005F002C006F003C007F0000E006EFF0E7F
:100B8600016E7F0E026E8E0E036E7BDE4CDF00C0A2
:100B96002DF001C02EF02F50FF08026E30C003F07A
:100BA600FF0E0356AF0E02263C0E032202C045F08E
:100BB60003C046F000C02FF001C030F002C053F071
:060BC60003C054F0120010
:100BCC000B6A0350D8B42CEF06F002500A6E028E5A
:100BDC008E0E035E03AE30EF06F0036C080E035C62
:100BEC00D8A00BEF06F0036E013602C001F0026ACA
:100BFC00080E035CD8A00BEF06F0036E0136016AF9
:100C0C000350D8A4D89015EF06F00350D8B415EFC4
:100C1C0006F0D89002320132032E0FEF06F00BBC17
:100C2C0001A022EF06F0D8A022EF06F0012AD8B4DA
:100C3C00022A02BE3FEF06F00AAE44EF06F0021E97
:100C4C00011E012AD8B4022A44EF06F0026A016A96
:100C5C0044EF06F00B800BAE48EF06F0026A0AAECA
:100C6C0048EF06F0FF0E026E016E0A36023248EFB4
:100C7C0006F0010E0C6E3ADD4AEF06F0000E0C6E1B
:100C8C004AEF06F0FF0E0C6E0150006E0250016E22
:020C9C00120044
:100C9E0000C008F00150006E016A026A036A0B6A16
:100CAE000C6A016A026A036A960E036E0A6A00AE45
:100CBE0067EF06F0081E001E082AD8B4002A0A8E16
:100CCE0000C001F008C000F0086A026AD9DD120007
:100CDE000B6A0A6A096A00500402F4CF09F0F3CFD6
:100CEE0008F001500502F4CF0BF0F3CF0AF00050DC
:100CFE000502F3500926F4500A22E86A0B2201502D
:100D0E000402F3500926F4500A22E86A0B2208C0A6
:100D1E0000F009C001F00AC002F00BC003F012008F
:100D2E00800E7618006E800E005C02E1000E755C7F
:100D3E0008E275500008006E76C001F0000E0156F4
:0C0D4E0004D075C000F076C001F0120067
:100D5A000A6A0350D8A40A800750D8A40A820A5003
:100D6A00D8B410EF07F0030AD8B4C9EF06F00AB0F6
:100D7A00C4EF06F006AE0EEF07F00CEF07F002AE76
:100D8A000CEF07F00EEF07F00250800B0A6E029E7E
:100D9A000650800B069E0A18D8B4DAEF06F00A50FD
:100DAA00D8B40CEF07F00EEF07F00750035CD8B485
:100DBA00E4EF06F0D8A000EF07F006EF07F00650C0
:100DCA00025CD8B4EEEF06F0D8A000EF07F006EF09
:100DDA0007F00550015CD8B4F8EF06F0D8A000EF90
:100DEA0007F006EF07F00450005CD8B410EF07F0E4
:100DFA00D8B006EF07F00A52D8B40EEF07F00CEF9E
:100E0A0007F00A52D8B40CEF07F00EEF07F0D880BB
:0E0E1A001200D8901200D880D8841200120066
:100E280075C000F076C001F077C002F078C003F01A
:100E38007F0E046E6A0E056E3C0E066E7B0E076E04
:100E48005EDD000E046E000E056E340E066E860E14
:100E5800076E5CDC580E046E390E056E340E066E95
:100E6800790E076E6CEC01F000C025F001C026F089
:100E780002C027F003C028F0000E046E500E056E65
:100E8800430E066E8E0E076E3ADD00C004F001C0F8
:100E980005F002C006F003C007F0000E006EFF0E5A
:100EA800016E7F0E026E8E0E036EEADCBBDD00C0A3
:100EB80031F001C032F03B50FF08026E3CC003F035
:100EC800FF0E0356AF0E02263C0E032202C03DF071
:100ED80003C03EF000C03BF001C03CF002C043F04C
:060EE80003C044F01200FB
:100EEE0075C000F076C001F077C002F078C003F054
:100EFE007F0E046E6A0E056E3C0E066E7B0E076E3E
:100F0E00FBDC000E046E000E056E340E066E860EB1
:100F1E00076E8AEC03F0580E046E390E056E340E11
:100F2E00066E790E076E6CEC01F000C03FF001C04A
:100F3E0040F002C041F003C042F0000E046E500EAD
:100F4E00056E430E066E8E0E076ED6DC00C004F0E4
:100F5E0001C005F002C006F003C007F0000E006EDF
:100F6E00FF0E016E7F0E026E8E0E036E86DC57DD57
:100F7E0000C035F001C036F03950FF08026E3AC09D
:100F8E0003F0FF0E0356AF0E02263C0E032202C0E4
:100F9E0033F003C034F000C039F001C03AF002C0A3
:080FAE0037F003C038F0120017
:100FB600FF0E476EFF0E486EFF0E496EFF0E4A6E1D
:100FC600580E4B6E1C0E4C6E000E4D6E000E4E6E85
:100FD6004E0E4F6E1C0E506E000E516E000E526E6F
:100FE600FF0E556EFF0E566E000E576E000E586EB3
:100FF600AC8A900EAB6E948E949C9EAA03D0AECF14
:0610060000F0FBD7120010
:10100C000900F5CFE6FF0006FBE10106F9E112004D
:10101C001CC004F01DC005F01EC006F01FC007F078
:10102C0059C000F05AC001F05BC002F05CC003F084
:10103C0025DC00C071F001C072F002C073F003C077
:10104C0074F071C065F072C066F073C067F074C064
:10105C0068F018C004F019C005F01AC006F01BC0E7
:10106C0007F05DC000F05EC001F05FC002F060C030
:10107C0003F004DC00C069F001C06AF002C06BF040
:10108C0003C06CF020C004F021C005F022C006F0B3
:10109C0023C007F061C000F062C001F063C002F031
:1010AC0064C003F044EC04F000C06DF001C06EF0BD
:1010BC0002C06FF003C070F071C000F072C001F09C
:1010CC0073C002F074C003F07BDD00C075F001C08A
:1010DC0076F027DE00C071F001C072F069C000F03C
:1010EC006AC001F06BC002F06CC003F069DD00C097
:1010FC0075F001C076F015DE800E0118026E800EC0
:10110C007218025C02E17150005CD8B0A1D265C0CB
:10111C0000F066C001F067C002F068C003F050DD5B
:10112C0000C075F001C076F0FCDD00C071F001C0AC
:10113C0072F06DC000F06EC001F06FC002F070C0B4
:10114C0003F03EDD00C075F001C076F0EADD800EE4
:10115C000118026E800E7218025C02E17150005C84
:10116C00D8B038D165C000F066C001F067C002F09D
:10117C0068C003F025DD00C075F001C076F0D1DD4C
:10118C000A0E046E000E056EA4DD83DD00C004F0B3
:10119C0001C005F002C006F003C007F069C000F002
:1011AC006AC001F06BC002F06CC003F08AEC03F073
:1011BC0000C069F001C06AF002C06BF003C06CF0B3
:1011CC0065C000F066C001F067C002F068C003F0B3
:1011DC00F7DC00C075F001C076F0A3DD0A0E046EDA
:1011EC00000E056E76DD55DD00C004F001C005F083
:1011FC0002C006F003C007F06DC000F06EC001F035
:10120C006FC002F070C003F08AEC03F000C06DF008
:10121C0001C06EF002C06FF003C070F065C000F04A
:10122C0066C001F067C002F068C003F0C9DC00C002
:10123C0075F001C076F075DD0A0E046E000E056EB9
:10124C0048DD27DD00C004F001C005F002C006F047
:10125C0003C007F065C000F066C001F067C002F083
:10126C0068C003F08AEC03F000C065F001C066F0C2
:10127C0002C067F003C068F01CC004F01DC005F08C
:10128C001EC006F01FC007F059C000F05AC001F094
:10129C005BC002F05CC003F044EC04F091DC00C0D5
:1012AC0075F001C076F03DDDF4DC00C004F001C047
:1012BC0005F002C006F003C007F0CD0E006ECC0E98
:1012CC00016E4C0E026E7C0E036E41DD010ED8B029
:1012DC00000E006E0052D8B47CD01CC000F01DC0B3
:1012EC0001F01EC002F01FC003F065C004F066C020
:1012FC0005F067C006F068C007F06CEC01F000C0A8
:10130C0071F001C072F002C073F003C074F071C0D0
:10131C001CF072C01DF073C01EF074C01FF018C01A
:10132C0000F019C001F01AC002F01BC003F069C034
:10133C0004F06AC005F06BC006F06CC007F06CECF2
:10134C0001F000C018F001C019F002C01AF003C07F
:10135C001BF020C000F021C001F022C002F023C01D
:10136C0003F06DC004F06EC005F06FC006F070C0E5
:10137C0007F06CEC01F000C020F001C021F002C0BD
:10138C0022F003C023F071C075F072C076F073C008
:10139C0077F074C078F042DD18C075F019C076F0A3
:1013AC001AC077F01BC078F09CDD20C075F021C00E
:1013BC0076F022C077F023C078F083EC05F01A0E9B
:1013CC000C6EF80E0D6E0D2EFED70C2EFCD70000F9
:1013DC0053D73DD16DC000F06EC001F06FC002F06C
:1013EC0070C003F0E6EC05F000C075F001C076F0BB
:1013FC0098DC0A0E046E000E056E6BDC4ADC00C035
:10140C0004F001C005F002C006F003C007F065C08F
:10141C0000F066C001F067C002F068C003F08AEC0F
:10142C0003F000C065F001C066F002C067F003C0B5
:10143C0068F06DC000F06EC001F06FC002F070C0BB
:10144C0003F0E6EC05F000C075F001C076F069DC45
:10145C000A0E046E000E056E3CDC1BDC00C004F0B2
:10146C0001C005F002C006F003C007F069C000F02F
:10147C006AC001F06BC002F06CC003F08AEC03F0A0
:10148C0000C069F001C06AF002C06BF003C06CF0E0
:10149C006DC000F06EC001F06FC002F070C003F0C0
:1014AC00E6EC05F000C075F001C076F03ADC0A0EEF
:1014BC00046E000E056E0DDC4FEC06F000C004F05F
:1014CC0001C005F002C006F003C007F06DC000F0CB
:1014DC006EC001F06FC002F070C003F08AEC03F034
:1014EC0000C06DF001C06EF002C06FF003C070F070
:1014FC0020C004F021C005F022C006F023C007F084
:10150C0061C000F062C001F063C002F064C003F07F
:10151C0044EC04F0E6EC05F000C075F001C076F088
:10152C0000DC4FEC06F000C004F001C005F002C076
:10153C0006F003C007F0CD0E006ECC0E016E4C0E03
:10154C00026E7C0E036E03DC010ED8B0000E006E32
:10155C000052D8B47CD01CC000F01DC001F01EC0DD
:10156C0002F01FC003F065C004F066C005F067C050
:10157C0006F068C007F06CEC01F000C071F001C01F
:10158C0072F002C073F003C074F071C01CF072C032
:10159C001DF073C01EF074C01FF018C000F019C00D
:1015AC0001F01AC002F01BC003F069C004F06AC05D
:1015BC0005F06BC006F06CC007F06CEC01F000C0DD
:1015CC0018F001C019F002C01AF003C01BF020C0C3
:1015DC0000F021C001F022C002F023C003F06DC066
:1015EC0004F06EC005F06FC006F070C007F06CEC34
:1015FC0001F000C020F001C021F002C022F003C0B5
:10160C0023F071C075F072C076F073C077F074C0BF
:10161C0078F004DC18C075F019C076F01AC077F0B9
:10162C001BC078F05EDC20C075F021C076F022C0C3
:10163C0077F023C078F083EC05F01A0E0C6EF80EE0
:10164C000D6E0D2EFED70C2EFCD7000051D7C2D23A
:10165C0069C000F06AC001F06BC002F06CC003F00E
:10166C00E6EC05F000C075F001C076F097EC06F0E2
:10167C0000C071F001C072F06DC000F06EC001F0DE
:10168C006FC002F070C003F0E6EC05F000C075F01E
:10169C0001C076F097EC06F0800E0118026E800EF9
:1016AC007218025C02E17150005CD8B04AD169C07A
:1016BC0000F06AC001F06BC002F06CC003F0E6EC05
:1016CC0005F000C075F001C076F097EC06F00A0E3C
:1016DC00046E000E056E6FEC06F04FEC06F000C0C9
:1016EC0004F001C005F002C006F003C007F065C0AD
:1016FC0000F066C001F067C002F068C003F08AEC2D
:10170C0003F000C065F001C066F002C067F003C0D2
:10171C0068F069C000F06AC001F06BC002F06CC0E8
:10172C0003F0E6EC05F000C075F001C076F097EC24
:10173C0006F00A0E046E000E056E6FEC06F04FEC10
:10174C0006F000C004F001C005F002C006F003C0B2
:10175C0007F06DC000F06EC001F06FC002F070C0F9
:10176C0003F08AEC03F000C06DF001C06EF002C013
:10177C006FF003C070F069C000F06AC001F06BC07C
:10178C0002F06CC003F0E6EC05F000C075F001C08F
:10179C0076F097EC06F00A0E046E000E056E6FECF8
:1017AC0006F04FEC06F000C004F001C005F002C0DA
:1017BC0006F003C007F069C000F06AC001F06BC00E
:1017CC0002F06CC003F08AEC03F000C069F001C0B9
:1017DC006AF002C06BF003C06CF018C004F019C0C2
:1017EC0005F01AC006F01BC007F05DC000F05EC02B
:1017FC0001F05FC002F060C003F044EC04F0E6ECD2
:10180C0005F000C075F001C076F097EC06F04FECD7
:10181C0006F000C004F001C005F002C006F003C0E1
:10182C0007F0CD0E006ECC0E016E4C0E026E7C0ECF
:10183C00036EADEC06F0010ED8B0000E006E005237
:10184C00D8B47ED01CC000F01DC001F01EC002F048
:10185C001FC003F065C004F066C005F067C006F059
:10186C0068C007F06CEC01F000C071F001C072F0C0
:10187C0002C073F003C074F071C01CF072C01DF094
:10188C0073C01EF074C01FF018C000F019C001F036
:10189C001AC002F01BC003F069C004F06AC005F066
:1018AC006BC006F06CC007F06CEC01F000C018F0D7
:1018BC0001C019F002C01AF003C01BF020C000F0E8
:1018CC0021C001F022C002F023C003F06DC004F06F
:1018DC006EC005F06FC006F070C007F06CEC01F044
:1018EC0000C020F001C021F002C022F003C023F0A0
:1018FC0071C075F072C076F073C077F074C078F078
:10190C0014EC07F018C075F019C076F01AC077F017
:10191C001BC078F077EC07F020C075F021C076F092
:10192C0022C077F023C078F083EC05F01A0E0C6E11
:10193C00F80E0D6E0D2EFED70C2EFCD700004DD7D9
:10194C0049D16DC000F06EC001F06FC002F070C0E4
:10195C0003F0E6EC05F000C075F001C076F097ECF2
:10196C0006F00A0E046E000E056E6FEC06F04FECDE
:10197C0006F000C004F001C005F002C006F003C080
:10198C0007F065C000F066C001F067C002F068C0E7
:10199C0003F08AEC03F000C065F001C066F002C0F1
:1019AC0067F003C068F06DC000F06EC001F06FC04E
:1019BC0002F070C003F0E6EC05F000C075F001C059
:1019CC0076F097EC06F00A0E046E000E056E6FECC6
:1019DC0006F04FEC06F000C004F001C005F002C0A8
:1019EC0006F003C007F069C000F06AC001F06BC0DC
:1019FC0002F06CC003F08AEC03F000C069F001C087
:101A0C006AF002C06BF003C06CF06DC000F06EC0E9
:101A1C0001F06FC002F070C003F0E6EC05F000C0FE
:101A2C0075F001C076F097EC06F00A0E046E000E0D
:101A3C00056E6FEC06F04FEC06F000C004F001C030
:101A4C0005F002C006F003C007F06DC000F06EC0D8
:101A5C0001F06FC002F070C003F08AEC03F000C01C
:101A6C006DF001C06EF002C06FF003C070F020C0CA
:101A7C0004F021C005F022C006F023C007F061C0BD
:101A8C0000F062C001F063C002F064C003F044ECEB
:101A9C0004F0E6EC05F000C075F001C076F097ECB0
:101AAC0006F04FEC06F000C004F001C005F002C0D7
:101ABC0006F003C007F0CD0E006ECC0E016E4C0E7E
:101ACC00026E7C0E036EADEC06F0010ED8B0000E6B
:101ADC00006E0052D8B47ED01CC000F01DC001F0C6
:101AEC001EC002F01FC003F065C004F066C005F014
:101AFC0067C006F068C007F06CEC01F000C071F034
:101B0C0001C072F002C073F003C074F071C01CF01D
:101B1C0072C01DF073C01EF074C01FF018C000F02E
:101B2C0019C001F01AC002F01BC003F069C004F028
:101B3C006AC005F06BC006F06CC007F06CEC01F0ED
:101B4C0000C018F001C019F002C01AF003C01BF05D
:101B5C0020C000F021C001F022C002F023C003F02D
:101B6C006DC004F06EC005F06FC006F070C007F0D9
:101B7C006CEC01F000C020F001C021F002C022F09A
:101B8C0003C023F071C075F072C076F073C077F0AB
:101B9C0074C078F014EC07F018C075F019C076F02A
:101BAC001AC077F01BC078F077EC07F020C075F006
:101BBC0021C076F022C077F023C078F083EC05F0DA
:101BCC001A0E0C6EF80E0D6E0D2EFED70C2EFCD7C9
:101BDC0000004DD759C075F05AC076F05BC077F055
:101BEC005CC078F014EC07F05DC075F05EC076F068
:101BFC005FC077F060C078F077EC07F061C075F0EB
:101C0C0062C076F063C077F064C078F083EC05F0C6
:101C1C0059C01CF05AC01DF05BC01EF05CC01FF018
:101C2C005DC018F05EC019F05FC01AF060C01BF008
:101C3C0061C020F062C021F063C022F064C023F0C8
:021C4C00120084
:0A1C4E00000E9EBA010E006E120097
:101C5800AECF01F0ABA202D0AB98AB8801C000F0C8
:021C6800120068
:101C6A00186A196A300E1A6E850E1B6EEC0E1C6EFF
:101C7A00510E1D6E110E1E6E850E1F6E660E206EA3
:101C8A00660E216E070E226E850E236E010E246EDD
:101C9A00949695909592969082868380838284907A
:101CAA000C0EC16E800EC06E948E948CB886020E95
:101CBA00B06E080EAF6EAC84DBEC07F0030E0B6E51
:101CCA008A0E0C6E550E0D6E0D2EFED70C2EFCD7FD
:101CDA000B2EFAD700000000EC0E596E510E5A6E08
:101CEA00110E5B6E850E5C6E000E5D6E000E5E6EF2
:101CFA00300E5F6E850E606E660E616E660E626EE7
:101D0A00070E636E850E646E0EEC08F0D56A3CC051
:101D1A0000F0016A00C0D7FF3BC0D6FF140ECD6E9B
:101D2A003AC000F0016A00C0CFFF39C0CEFF140EDE
:101D3A00B16E30C000F0016A00C0B3FF2FC0B2FF1D
:101D4A00E00EF26E9D80A082D58ECD80B1802450A7
:101D5A00310A0DE02450320A0AE02450330A07E01F
:101D6A0071DF005203E073DF00C024F0F0D7EC0EFD
:101D7A00596E510E5A6E110E5B6E850E5C6E000E18
:101D8A005D6E000E5E6E300E5F6E850E606E660EC4
:101D9A00616E660E626E070E636E850E646E0EECE1
:101DAA0008F0000E596E000E5A6E520E5B6E850ECA
:101DBA005C6E000E5D6E000E5E6E2C0E5F6E850E02
:101DCA00606E000E616E000E626E200E636E860EED
:101DDA00646E0EEC08F08480000E596E000E5A6E86
:101DEA00560E5B6E850E5C6ED70E5D6E230E5E6EB2
:101DFA00270E5F6E850E606E9A0E616E990E626E88
:101E0A00790E636E850E646E0EEC08F02450310A6A
:101E1A006AE1000E596E000E5A6E7E0E5B6E850EDA
:101E2A005C6E330E5D6E330E5E6E690E5F6E840EEF
:101E3A00606E000E616E000E626E6E0E636E850E2F
:101E4A00646E0EEC08F0660E596E660E5A6E4E0EF1
:101E5A005B6E850E5C6ECD0E5D6ECC0E5E6E420EB6
:101E6A005F6E840E606E330E616EB30E626E0A0E82
:101E7A00636E860E646E0EEC08F08490000E596E46
:101E8A00000E5A6E7E0E5B6E850E5C6E330E5D6EB4
:101E9A00330E5E6E690E5F6E840E606E000E616EAA
:101EAA00000E626E6E0E636E850E646E0EEC08F0A6
:101EBA00EC0E596E510E5A6E110E5B6E850E5C6EEB
:101ECA00000E5D6E000E5E6E300E5F6E850E606EE9
:101EDA00660E616E660E626E070E636E850E646E26
:101EEA000EEC08F047D12450320AD8A4BCD0000E18
:101EFA00596E000E5A6E740E5B6E850E5C6E000E85
:101F0A005D6E000E5E6E400E5F6E840E606E9A0EFF
:101F1A00616E990E626E510E636E850E646E0EECE2
:101F2A0008F0000E596E000E5A6E310E5B6E850E69
:101F3A005C6ECD0E5D6ECC0E5E6E020E5F6E840E12
:101F4A00606E000E616E000E626E000E636E860E8B
:101F5A00646E0EEC08F08490100E0B6E390E0C6E47
:101F6A000D0E0D6E0D2EFED70C2EFCD70B2EFAD7AA
:101F7A0000000000000E756E000E766E1A0E776E67
:101F8A00850E786E14EC07F0000E756E000E766EF4
:101F9A00070E776E860E786E83EC05F0080E0B6ED0
:101FAA009D0E0C6E050E0D6E0D2EFED70C2EFCD757
:101FBA000B2EFAD700000000000E756E000E766E2A
:101FCA00310E776E850E786E14EC07F0000E756E82
:101FDA00000E766E000E776E860E786E83EC05F034
:101FEA00080E0B6E9D0E0C6E050E0D6E0D2EFED795
:101FFA000C2EFCD70B2EFAD700000000000E596EEB
:10200A00000E5A6E740E5B6E850E5C6E000E5D6E6F
:10201A00000E5E6E400E5F6E840E606E9A0E616EEA
:10202A00990E626E510E636E850E646E0EEC08F0A8
:10203A00EC0E596E510E5A6E110E5B6E850E5C6E69
:10204A00000E5D6E000E5E6E300E5F6E850E606E67
:10205A00660E616E660E626E070E636E850E646EA4
:10206A000EEC08F087D02450330AD8A483D0660E29
:10207A00596E660E5A6E5F0E5B6E850E5C6E9A0E18
:10208A005D6E990E5E6E370E5F6E840E606E9A0EEE
:10209A00616E990E626E2C0E636E850E646E0EEC86
:1020AA0008F03D0E596E8A0E5A6E410E5B6E850E11
:1020BA005C6E9A0E5D6E990E5E6E1D0E5F6E830EDD
:1020CA00606E000E616E000E626E460E636E850EC5
:1020DA00646E0EEC08F0660E596E660E5A6E210E8C
:1020EA005B6E850E5C6EEC0E5D6E510E5E6E500E72
:1020FA005F6E810E606E520E616EB80E626E7D0E5C
:10210A00636E850E646E0EEC08F084903D0E596E77
:10211A008A0E5A6E410E5B6E850E5C6E9A0E5D6E6D
:10212A00990E5E6E1D0E5F6E830E606E000E616EFE
:10213A00000E626E460E636E850E646E0EEC08F03B
:10214A00EC0E596E510E5A6E110E5B6E850E5C6E58
:10215A00000E5D6E000E5E6E300E5F6E850E606E56
:10216A00660E616E660E626E070E636E850E646E93
:0A217A000EEC08F0246AEBD5FFD745
:020000040030CA
:0D000100021F1EFF8381FF0FC00FE00F40A4
:00000001FF
